:0400000094EF1FF06A
:103F28000001C8EF1FF09B8E8F0ED316000E936E04
:103F38008A68D59AD596D550F80B0409D56ED58CD4
:103F4800000ED76E000ED66E000ED76E850ED66E9A
:103F5800D58E3F0ECD16CD50CF0B1009CD6E000E6D
:103F6800CF6E000ECE6ECD80CC9EBD50F00B0B09EF
:103F7800BD6EFC0E0F0149170F0EBF6E420EBE6ECE
:103F8800F2949E909E94120097EC1FF0D6CF01F009
:103F9800D7CF02F0D89002320132D89002320132E3
:103FA800010E0116014601468A500118FB0B011843
:103FB8008A6EF2A4E2EF1FF0E4EF1FF0EAEF1FF0C1
:103FC8008A76000ED76E850ED66EF2949EA0EFEF1D
:103FD8001FF0F1EF1FF0F3EF1FF08A789E909EA478
:103FE800F8EF1FF0FAEF1FF0CAEF1FF09E948A7ADD
:083FF800CAEF1FF000EF00F01A
:020000040020DA
:08000000FFFFFFFFFFFFFFFF00
:020000040030CA
:0E000000FF281F3CFFBD81FF03C003E003404B
:00000001FF
