:04000000FAEF00F023
:100008003E82D9CF15F0DACF16F0F3CF17F0F4CF40
:1000180018F0F6CF19F0F7CF1AF0F8CF1BF0F5CF9C
:100028001CF0F0A61AEF00F01CEF00F02BEF00F028
:10003800F0A021EF00F023EF00F02BEF00F0F0909C
:100048002A0E7DEC07F0E8EF00F0E8EF00F09DAC39
:1000580030EF00F032EF00F05FEF00F09EAC37EFCA
:1000680000F039EF00F05FEF00F09E9CC3CF01F085
:10007800C4CF02F0120E046E8E0E036EA5EC07F0CC
:1000880001C007F002C008F0030E0A6E09688EEC82
:1000980004F007C01DF008C01EF01DC010F01EC0FF
:1000A80011F06BEC06F01DC00EF01EC00FF054EC02
:1000B80004F0E8EF00F09DAA64EF00F066EF00F0AE
:1000C800E8EF00F09EAA6BEF00F06DEF00F0E8EFAC
:1000D80000F096EC06F01F6E3650D8A476EF00F0CC
:1000E80078EF00F0C2EF00F0A5EF00F0410E53ECFE
:1000F80007F08A9A010E366E000E356EFAEC06F09D
:100108000009D8A48AEF00F08CEF00F082EF00F02D
:10011800899A010ED5EC05F0070E136E7D0EE82EB8
:10012800FED7132EFCD700F0E8EF00F0410E53EC99
:1001380007F0C282E8EF00F0580E53EC07F0E8EF42
:1001480000F01F50136E146A1450000AD8B4AFEFB1
:1001580000F0A0EF00F013500A0AD8B429EF00F01D
:10016800070AD8B4E8EF00F06C0AD8B49AEF00F0A8
:10017800150AD8B47AEF00F0A0EF00F01F50D8B4F9
:10018800C8EF00F0CAEF00F0CFEF00F01F5091EC7D
:1001980007F0E8EF00F0000E366EFAEC06F0000902
:1001A800D8A4D9EF00F0DBEF00F0D1EF00F0899A86
:1001B800010ED5EC05F0070E136E7D0EE82EFED766
:1001C800132EFCD700F08A8A1CC0F5FF1BC0F8FF6D
:1001D8001AC0F7FF19C0F6FF18C0F4FF17C0F3FFE5
:1001E80016C0DAFF15C0D9FF3E92110019EF07F0CB
:1003000000206D5600000D6EFAEC06F00009D8A42E
:100310008CEF01F08EEF01F084EF01F0899A0D501F
:10032000400DF3500924800FD5EC05F0010E0E6E40
:100330000BBE9FEF01F09DEF01F0B3EF01F0FAEC7F
:1003400006F00009D8A4A7EF01F0A9EF01F09FEF94
:1003500001F0898A2D0ED5EC05F00A6C0B1ED8B081
:100360000B2AB3EF01F00AC001F00BC002F0270E18
:10037000046E100E036E9CEC03F001500F6E0F50D4
:10038000D8A4C5EF01F0C7EF01F0D0EF01F0050EE2
:100390000C18D8A4CEEF01F0D0EF01F0D2EF01F0AD
:1003A000000E0E6E0E50D8A4D8EF01F0DAEF01F077
:1003B000E9EF01F0FAEC06F00009D8A4E2EF01F051
:1003C000E4EF01F0DAEF01F0898A0F50300FD5EC3D
:1003D00005F00FC001F0026AD80E046EF00E036E35
:1003E000A5EC07F00A5001240A6E0B5002200B6E98
:1003F0000AC001F00BC002F0030E046EE80E036E9B
:100400009CEC03F001500F6E0E50D8B40AEF02F0CE
:100410000CEF02F01FEF02F00F50D8A412EF02F021
:1004200014EF02F01DEF02F0040E0C18D8A41BEF1D
:1004300002F01DEF02F01FEF02F0000E0E6E0E50E4
:10044000D8A425EF02F027EF02F036EF02F0FAEC25
:1004500006F00009D8A42FEF02F031EF02F027EFE9
:1004600002F0898A0F50300FD5EC05F00FC001F073
:10047000026AFC0E046E180E036EA5EC07F00A501B
:1004800001240A6E0B5002200B6E0AC001F00BC053
:1004900002F0000E046E640E036E9CEC03F001503B
:1004A0000F6E0E50D8B457EF02F059EF02F06CEF18
:1004B00002F00F50D8A45FEF02F061EF02F06AEF94
:1004C00002F0030E0C18D8A468EF02F06AEF02F0F5
:1004D0006CEF02F0000E0E6E0E50D8A472EF02F018
:1004E00074EF02F083EF02F0FAEC06F00009D8A4F2
:1004F0007CEF02F07EEF02F074EF02F0898A0F5079
:10050000300FD5EC05F00FC001F0026AFF0E046E4B
:100510009C0E036EA5EC07F00A5001240A6E0B50E6
:1005200002200B6E0AC001F00BC002F0000E046E38
:100530000A0E036E9CEC03F001500F6E0E50D8B4FF
:10054000A4EF02F0A6EF02F0B9EF02F00F50D8A42A
:10055000ACEF02F0AEEF02F0B7EF02F0020E0C18B3
:10056000D8A4B5EF02F0B7EF02F0B9EF02F0000E39
:100570000E6E0E50D8A4BFEF02F0C1EF02F0D0EF24
:1005800002F0FAEC06F00009D8A4C9EF02F0CBEFB4
:1005900002F0C1EF02F0898A0F50300FD5EC05F060
:1005A0000FC001F0026AFF0E046EF60E036EA5EC9A
:1005B00007F00A5001240A6E0B5002200B6E0AC08D
:1005C0000FF0FAEC06F00009D8A4E9EF02F0EBEF27
:1005D00002F0E1EF02F0898A0F50300FD5EC05F000
:1005E00012008B909490899A929A8B9294928A940A
:1005F00093948A9693968A9893988A9A939A070ED8
:10060000216E7D0EE82EFED7212EFCD700F0070EBE
:10061000216E7D0EE82EFED7212EFCD700F0070EAE
:10062000216E7D0EE82EFED7212EFCD700F0300E75
:1006300036EC07F0070E216E7D0EE82EFED7212E38
:10064000FCD700F0300E36EC07F0070E216E7D0E61
:10065000E82EFED7212EFCD700F0300E36EC07F046
:10066000070E216E7D0EE82EFED7212EFCD700F05E
:10067000200E36EC07F0DBEC06F00009D8A443EFBF
:1006800003F045EF03F03BEF03F0DBEC06F000096D
:10069000D8A44DEF03F04FEF03F045EF03F0899A34
:1006A000280EA2EC05F0DBEC06F00009D8A45BEF05
:1006B00003F05DEF03F053EF03F0899A0C0EA2EC08
:1006C00005F0DBEC06F00009D8A469EF03F06BEF4E
:1006D00003F061EF03F0899A060EA2EC05F0DBEC63
:1006E00006F00009D8A477EF03F079EF03F06FEF7D
:1006F00003F0899A010EA2EC05F0070E216E7D0E23
:10070000E82EFED7212EFCD700F0DBEC06F0000926
:10071000D8A48DEF03F08FEF03F085EF03F0899AF3
:10072000020EA2EC05F0070E216E7D0EE82EFED71C
:10073000212EFCD700F01200000E066E04BEA5EFBD
:1007400003F0A3EF03F0ABEF03F0036C041ED8B08B
:10075000042A010E066E02BEB2EF03F0B0EF03F002
:10076000B8EF03F0016C021ED8B0022A010E061A7F
:10077000000E086E000E076E03500410D8B4C3EFCD
:1007800003F0C5EF03F0EDEF03F0010E056ECDEFC2
:1007900003F0D89003360436052A04AED2EF03F0F6
:1007A000D4EF03F0C9EF03F0D890073608360350B2
:1007B000015C04500258D8A0E0EF03F0E2EF03F030
:1007C000E7EF03F00350015E0450025A0780D8900F
:1007D00004320332052ED4EF03F00650D8B4F3EF01
:1007E00003F0F5EF03F0F9EF03F0076C081ED8B043
:1007F000082A07C001F008C002F01200226E000EA5
:10080000AC6E000EAB6E22A008EF04F00AEF04F00D
:100810000BEF04F0AC8822A210EF04F012EF04F00A
:1008200014EF04F0AC8CAB8C22A419EF04F01BEF96
:1008300004F01CEF04F0AC8E22A621EF04F023EFAD
:1008400004F026EF04F0AB8827EF04F0AB8A22A86F
:100850002CEF04F02EEF04F02FEF04F0AC8422AA6A
:1008600034EF04F036EF04F037EF04F0AB8622AC3F
:100870003CEF04F03EEF04F041EF04F09D8A42EFBC
:1008800004F09D9A22AE47EF04F049EF04F04CEFDC
:1008900004F09D884DEF04F09D9820C0AFFF2150DB
:1008A000B06EAC8AAB8E12000EC001F00FC002F029
:1008B000000E046E0A0E036E08EC06F00150106E76
:1008C0000EC007F00FC008F0000E0A6E0A0E096E87
:1008D0008EEC04F007C00EF008C00FF0300E1026AA
:1008E000ACA275EF04F077EF04F070EF04F0105055
:1008F0007DEC07F00E500F10D8A481EF04F083EFC9
:1009000004F054EF04F0ACA288EF04F08AEF04F096
:1009100083EF04F00D0E7DEC07F01200000E0C6E5C
:10092000000E0B6E09500A10D8B499EF04F09BEF3B
:1009300004F0C3EF04F0010E0D6EA3EF04F0D890A5
:1009400009360A360D2A0AAEA8EF04F0AAEF04F021
:100950009FEF04F0D8900B360C360950075C0A5014
:100960000858D8A0B6EF04F0B8EF04F0BDEF04F0DB
:100970000950075E0A50085A0B80D8900A32093293
:100980000D2EAAEF04F00BC007F00CC008F0120007
:10099000056EFAEC06F00009D8A4D1EF04F0D3EF0D
:1009A00004F0C9EF04F0899A0550400DF350022479
:1009B000800FD5EC05F0F2EF04F0FAEC06F0000938
:1009C000D8A4E5EF04F0E7EF04F0DDEF04F0898A46
:1009D00003C0F6FF04C0F7FF0800F550D5EC05F0A2
:1009E000034A042A03C0F6FF04C0F7FF0800F550CD
:1009F0000009D8A4FEEF04F000EF05F0DDEF04F0ED
:100A00001200246EDBEC06F00009D8A40AEF05F012
:100A10000CEF05F002EF05F0899A2450400DF350D9
:100A20002124800FA2EC05F02AEF05F0DBEC06F0A4
:100A30000009D8A41EEF05F020EF05F016EF05F031
:100A4000898A22C0D9FF23C0DAFFDF50A2EC05F06B
:100A5000224A232A22C0D9FF23C0DAFFDF50D8A4BC
:100A600034EF05F036EF05F016EF05F01200056ED5
:100A7000FAEC06F00009D8A440EF05F042EF05F0CB
:100A800038EF05F0899A0550400DF3500224800F8D
:100A9000D5EC05F060EF05F0FAEC06F00009D8A4FB
:100AA00054EF05F056EF05F04CEF05F0898A03C0CE
:100AB000D9FF04C0DAFFDF50D5EC05F0034A042A61
:100AC00003C0D9FF04C0DAFFDF50D8A46AEF05F0F5
:100AD0006CEF05F04CEF05F01200500ED36E8A68F3
:100AE0009280010E0F01386F000E3A6F3ACF39FF36
:100AF000020E936E948C948EAC96000E246E330E80
:100B0000236E000E216E330E206E7C0EFEEC03F081
:100B1000CC0EB86E830EC216F30EC116FC0EC116B3
:100B2000C050C70B2809C06EC050F80B0209C06E38
:100B3000C08EC2809E9C9D8CF1EC02F0F086F28CFF
:100B4000F28E1200206E20C034F08B9034AE02D0B2
:100B50008A8A01D08A9A34AC02D08A8801D08A98D5
:100B600034AA02D08A8601D08A9634A802D08A8418
:100B700001D08A948B8200F08B9234A602D08A8AAC
:100B800001D08A9A34A402D08A8801D08A9834A2EB
:100B900002D08A8601D08A9634A002D08A8401D0FD
:100BA0008A948B8200F08B921200016E01C034F0A7
:100BB0008B9034AE02D08A8A01D08A9A34AC02D0AB
:100BC0008A8801D08A9834AA02D08A8601D08A966F
:100BD00034A802D08A8401D08A948B8200F08B9250
:100BE00034A602D08A8A01D08A9A34A402D08A8894
:100BF00001D08A9834A202D08A8601D08A9634A085
:100C000002D08A8401D08A948B8200F08B921200E9
:100C100003500410D8B40FEF06F011EF06F035EFD3
:100C200006F0010E056E19EF06F0D8900336043673
:100C3000052A04AE1EEF06F020EF06F015EF06F0D1
:100C40000350015C04500258D8A029EF06F02BEFA6
:100C500006F02FEF06F00350015E0450025AD890C0
:100C600004320332052E20EF06F001C001F002C06D
:100C700002F012006DEC05F0DBEC06F00009D8A4E0
:100C800044EF06F046EF06F03CEF06F0899A010EBD
:100C9000A2EC05F0070E276E7D0EE82EFED7272E5C
:100CA000FCD700F020EE37F010EE28F0060EDBCF78
:100CB000E3FFE806FCE2280E256E000E266EB8EC77
:100CC00007F0280E216E000E226EBCEC06F067EFD6
:100CD00006F0FAEF00F0FAEC06F00009D8A473EF82
:100CE00006F075EF06F06BEF06F0899A010ED5EC71
:100CF00005F0070E126E7D0EE82EFED7122EFCD7E1
:100D000000F0000E096E10C00AF011C00BF0040EC6
:100D10000C6E000E83EC01F0040E026E010E036EE9
:100D2000030E046E000EC8EC04F01200F20E33162F
:100D3000ABAC9DEF06F09FEF06F0A8EF06F0339006
:100D4000ABA0A5EF06F0A7EF06F0A8EF06F0338002
:100D5000ABA4ADEF06F0AFEF06F0B0EF06F03384D2
:100D6000ABA2B5EF06F0B7EF06F0B8EF06F03386AA
:100D7000AECF01F001501200CEEF06F0ACA2C3EFEF
:100D800006F0C5EF06F0BEEF06F021C0D9FF22C085
:100D9000DAFFDF5069EC07F0214A222A21C0D9FF8F
:100DA00022C0DAFFDF50D8A4D8EF06F0DAEF06F061
:100DB000BEEF06F012008B80899A93849386938805
:100DC000938A8B8200F081AA02D0348E01D0349EA7
:100DD0008B92939493969398939A8B9034AEF3EF6F
:100DE00006F0F5EF06F0F8EF06F0010EF9EF06F069
:100DF000000E12008B80899A938493869388938A3D
:100E00008B8200F081AA02D0348E01D0349E8B9266
:100E1000939493969398939A8B9034AE12EF07F035
:100E200014EF07F017EF07F0010E18EF07F0000EB0
:100E30001200840EF66E0F0EF76E000EF86E00EEC6
:100E400037F010EE07F00900F5CFEEFFE550E15066
:100E5000FAE100EE2FF0080EEE6AE806FDE13E90A2
:100E60003E92000EF86E00013AEF06F0206E20C0B0
:100E700034F0899A8B9034A802D08A8401D08A9465
:100E800034AA02D08A8601D08A9634AC02D08A88ED
:100E900001D08A9834AE02D08A8A01D08A9A8B8295
:100EA00000F08B921200026EACA259EF07F05BEFDC
:100EB00007F054EF07F002507DEC07F0ACA263EFAF
:100EC00007F065EF07F05EEF07F00D0E7DEC07F021
:100ED0001200206EACAC6FEF07F071EF07F07AEF05
:100EE00007F0AC9033A277EF07F079EF07F07AEFD5
:100EF00007F0AC8020C0ADFF1200016EACAC83EFF8
:100F000007F085EF07F08EEF07F0AC9033A28BEF80
:100F100007F08DEF07F08EEF07F0AC8001C0ADFF5A
:100F20001200066E31C007F032C008F006C007F0AC
:100F3000000E086E35C002F0070E036E000E046E40
:100F4000010E37EC05F0352A120001500302F3CFF1
:100F500005F0F4CF06F001500402F35006260250CB
:100F60000302F350062605C001F006C002F012008D
:100F7000000E216E25C022F026C023F0000E01ECE9
:0B0F800005F0120048454C4C4F0D00DE
:020000040020DA
:08000000FFFFFFFFFFFFFFFF00
:020000040030CA
:0E000000FF29183CFF3D81FF03C003E00340D1
:00000001FF
