:0400000037EF00F0E6
:1000080041829DAC0AEF00F00CEF00F035EF00F0F4
:100018009EAC11EF00F013EF00F035EF00F0C35085
:10002800C4CF01F0026A01C002F0016A0126000E85
:1000380002223D50011809E13E500218D8B427EFBA
:1000480000F029EF00F034EF00F0C450026E016AAE
:10005800C35001243D6E000E02203E6E010E406E1C
:0A0068009E9C41921100ADEF08F0DC
:05030000006D56000035
:100306001450800B1D6E14501424236E13AE8EEF02
:1003160001F090EF01F091EF01F023802350D8B463
:1003260097EF01F099EF01F0ACEF01F02328D8A484
:100336009FEF01F0A1EF01F0A9EF01F0000E116EA1
:10034600000E126E000E136E000E146E138EB4EFB6
:1003560001F0000E116E000E126E000E136E000EEE
:10036600146E1850800B1D1A18501824226E17AEE2
:10037600BFEF01F0C1EF01F0C2EF01F02280225081
:10038600D8B4C8EF01F0CAEF01F0DDEF01F0222882
:10039600D8A4D0EF01F0D2EF01F0DAEF01F0000EB1
:1003A600156E000E166E000E176E000E186E178E66
:1003B600E5EF01F0000E156E000E166E000E176EBC
:1003C600000E186E2250D8B4EBEF01F0EDEF01F0FD
:1003D600F5EF01F02350D8A4F3EF01F0F5EF01F0AB
:1003E600FFEF01F0000E116E000E126E000E136E7E
:1003F600000E146E97EF03F017501102F3CF28F09A
:10040600F4CF29F028501E6E1F6A206A216A2950EF
:10041600246E256A266A276A16501202F3CF28F040
:10042600F4CF29F028501E26000E1F22202221225A
:1004360029502426000E2522262227221550130293
:10044600F3CF28F0F4CF29F028501E26000E1F22E5
:100456002022212229502426000E25222622272268
:1004660020C021F01FC020F01EC01FF01E6A1550CC
:100476001202F3CF28F0F4CF29F028501E26295077
:100486001F22000E2022000E212216501102F3CF49
:1004960028F0F4CF29F028501E2629501F22000EDE
:1004A6002022000E212220C021F01FC020F01EC0F5
:1004B6001FF01E6A15501102F3CF28F0F4CF29F071
:1004C60028501E2629501F22000E2022000E21220F
:1004D60017501202F3CF28F0F4CF29F02850242623
:1004E60029502522000E2622000E2722165013021E
:1004F600F3CF28F0F4CF29F02850242629502522BE
:10050600000E2622000E272217501302F3CF28F0E2
:10051600F4CF29F02850196E29501A6E1B6A1C6AEE
:100526001BC01CF01AC01BF019C01AF0196A19502A
:1005360024261A5025221B5026221C5027221EC074
:1005460019F01FC01AF020C01BF021C01CF0190EB4
:10055600B2EF02F0D8901C321B321A321932E82E52
:10056600ADEF02F0195024261A5025221B502622E0
:100576001C50272220C021F01FC020F01EC01FF0F3
:100586001E6A225023C019F01A6A1926000E1A2272
:10059600820E1924286EFF0E1A20296EE8EF02F04B
:1005A600D890243625362636273621AEDDEF02F0E2
:1005B600DFEF02F0E0EF02F02480D8901E361F36FF
:1005C600203621362806D8A0290626AEEDEF02F001
:1005D600EFEF02F0D3EF02F0000E226E21AEF6EF3F
:1005E60002F0F8EF02F01CEF03F0FF0E1E14196E76
:1005F600FF0E1F141A6EFF0E20141B6E7F0E2114A1
:100606001C6E19501A101B101C10D8B40DEF03F0F5
:100616000FEF03F013EF03F0010E226E1CEF03F051
:1006260024A018EF03F01AEF03F01CEF03F00FEF0E
:1006360003F02250D8B422EF03F024EF03F048EF82
:1006460003F0010E2426000E25222622272227A0AB
:100656002FEF03F031EF03F048EF03F024C019F059
:1006660025C01AF026C01BF027C01CF01C341C3213
:100676001B321A32193219C024F01AC025F01BC0D9
:1006860026F01CC027F0284A292A29BE53EF03F07A
:10069600295008E12828D8A053EF03F055EF03F0BE
:1006A6005FEF03F0000E246E000E256E800E266EA0
:1006B6007F0E276E8DEF03F029BE6CEF03F02950F5
:1006C60006E12804D8B06AEF03F06CEF03F078EF88
:1006D60003F0000E246E000E256E000E266E000E30
:1006E600276E000E1D6E8DEF03F028C023F0FF0E5F
:1006F6002416FF0E25167F0E2616000E271623A09B
:1007060087EF03F089EF03F08AEF03F0268ED89087
:100716002330276E1D50271224C011F025C012F079
:1007260026C013F027C014F01200386E5EEC08F0F5
:100736000009D8A4A1EF03F0A3EF03F099EF03F0AB
:10074600899A3850400DF3503424800F2BEC08F072
:10075600010E396E36BEB4EF03F0B2EF03F0C8EF08
:1007660003F05EEC08F00009D8A4BCEF03F0BEEF7E
:1007760003F0B4EF03F0898A2D0E2BEC08F0356CEC
:10078600361ED8B0362AC8EF03F035C003F036C09F
:1007960004F0270E066E100E056E0EEC07F00350E1
:1007A6003A6E3A50D8A4DAEF03F0DCEF03F0E5EF47
:1007B60003F0050E3718D8A4E3EF03F0E5EF03F0D6
:1007C600E7EF03F0000E396E3950D8A4EDEF03F0D1
:1007D600EFEF03F0FEEF03F05EEC08F00009D8A49B
:1007E600F7EF03F0F9EF03F0EFEF03F0898A3A50E1
:1007F600300F2BEC08F03AC003F0046AD80E066EF0
:10080600F00E056E9AEC08F035500324356E36501E
:100816000420366E35C003F036C004F0030E066EB3
:10082600E80E056E0EEC07F003503A6E3950D8B458
:100836001FEF04F021EF04F034EF04F03A50D8A48F
:1008460027EF04F029EF04F032EF04F0040E371816
:10085600D8A430EF04F032EF04F034EF04F0000EC9
:10086600396E3950D8A43AEF04F03CEF04F04BEF60
:1008760004F05EEC08F00009D8A444EF04F046EF5B
:1008860004F03CEF04F0898A3A50300F2BEC08F064
:100896003AC003F0046AFC0E066E180E056E9AEC5A
:1008A60008F035500324356E36500420366E35C0B8
:1008B60003F036C004F0000E066E640E056E0EECF4
:1008C60007F003503A6E3950D8B46CEF04F06EEF6F
:1008D60004F081EF04F03A50D8A474EF04F076EFF8
:1008E60004F07FEF04F0030E3718D8A47DEF04F070
:1008F6007FEF04F081EF04F0000E396E3950D8A472
:1009060087EF04F089EF04F098EF04F05EEC08F04E
:100916000009D8A491EF04F093EF04F089EF04F0F6
:10092600898A3A50300F2BEC08F03AC003F0046A7B
:10093600FF0E066E9C0E056E9AEC08F035500324E9
:10094600356E36500420366E35C003F036C004F0DE
:10095600000E066E0A0E056E0EEC07F003503A6E98
:100966003950D8B4B9EF04F0BBEF04F0CEEF04F081
:100976003A50D8A4C1EF04F0C3EF04F0CCEF04F072
:10098600020E3718D8A4CAEF04F0CCEF04F0CEEF6D
:1009960004F0000E396E3950D8A4D4EF04F0D6EF27
:1009A60004F0E5EF04F05EEC08F00009D8A4DEEFF1
:1009B60004F0E0EF04F0D6EF04F0898A3A50300FE5
:1009C6002BEC08F03AC003F0046AFF0E066EF60E32
:1009D600056E9AEC08F035500324356E3650042027
:1009E600366E35C03AF05EEC08F00009D8A4FEEF8A
:1009F60004F000EF05F0F6EF04F0898A3A50300F64
:100A06002BEC08F012000B6E0B50D8B40DEF05F06E
:100A16000FEF05F031EF05F006BE16EF05F014EF07
:100A260005F031EF05F003C007F004C008F005C07B
:100A360009F006C00AF0071E081E091E0A1E072A2C
:100A4600000E082209220A2207C00DF008C00EF087
:100A560009C00FF00AC010F039EF05F003C00DF021
:100A660004C00EF005C00FF006C010F003500410CD
:100A760005100610D8A442EF05F044EF05F04EEF3E
:100A860005F0000E036E000E046E000E056E000EDD
:100A9600066EDFEF05F0960E0C6E58EF05F00C2A89
:100AA600D89010320F320E320D32000E0D14076E32
:100AB600000E0E14086E000E0F14096EFE0E1014B2
:100AC6000A6E0750081009100A10D8A46DEF05F039
:100AD6006FEF05F052EF05F07DEF05F00C2A010EE1
:100AE6000D26000E0E220F221022D89010320F3241
:100AF6000E320D32000E0D14076E000E0E14086E27
:100B0600000E0F14096EFF0E10140A6E075008101F
:100B160009100A10D8A492EF05F094EF05F071EFD2
:100B260005F09CEF05F00C06D8900D360E360F3604
:100B360010360FBEA1EF05F0A3EF05F0ABEF05F001
:100B4600020E0C60A9EF05F0ABEF05F096EF05F08D
:100B56000CB0B0EF05F0B2EF05F0B3EF05F00F9E65
:100B6600D8900C320CC007F0086A096A0A6A07C0F6
:100B76000AF0096A086A076A07500D1208500E1231
:100B860009500F120A5010120B50D8B4CDEF05F0D1
:100B9600CFEF05F0D7EF05F006BED6EF05F0D4EFA0
:100BA60005F0D7EF05F0108E0DC003F00EC004F06F
:100BB6000FC005F010C006F012008B909490899A31
:100BC600929A8B9294928A9493948A9693968A9800
:100BD60093988A9A939A070E046E7D0EE82EFED796
:100BE600042EFCD700F0070E046E7D0EE82EFED70D
:100BF600042EFCD700F0070E046E7D0EE82EFED7FD
:100C0600042EFCD700F0300E7DEC08F0070E046EC3
:100C16007D0EE82EFED7042EFCD700F0300E7DECBC
:100C260008F0070E046E7D0EE82EFED7042EFCD7C4
:100C360000F0300E7DEC08F0070E046E7D0EE82EF7
:100C4600FED7042EFCD700F0200E7DEC08F05EECFB
:100C560008F00009D8A432EF06F034EF06F02AEFC8
:100C660006F05EEC08F00009D8A43CEF06F03EEF73
:100C760006F034EF06F0899A280E2BEC08F05EECAD
:100C860008F00009D8A44AEF06F04CEF06F042EF50
:100C960006F0899A0C0E2BEC08F05EEC08F00009C1
:100CA600D8A458EF06F05AEF06F050EF06F0899AEE
:100CB600060E2BEC08F05EEC08F00009D8A466EFEF
:100CC60006F068EF06F05EEF06F0899A010E2BEC4F
:100CD60008F0070E046E7D0EE82EFED7042EFCD714
:100CE60000F05EEC08F00009D8A47CEF06F07EEF79
:100CF60006F074EF06F0899A020E2BEC08F0070E48
:100D0600046E7D0EE82EFED7042EFCD700F01200EE
:100D16002C342D34336E3350D8A494EF06F096EF6E
:100D260006F0A0EF06F0000E2A6E000E2B6E000EE7
:100D36002C6E000E2D6E0DEF07F02AC02EF02BC084
:100D46002FF02CC030F02DC031F0200EB0EF06F0A1
:100D5600D890313230322F322E32E82EABEF06F0F9
:100D66002E50326E2C8EFF0E2A16FF0E2B16FF0EFD
:100D76002C16000E2D16960E335E33BEC7EF06F008
:100D8600C5EF06F0DDEF06F03350800A970FD8B0B6
:100D9600CFEF06F0D1EF06F0D3EF06F096EF06F0B0
:100DA600D8902D322C322B322A32333ED3EF06F036
:100DB600F5EF06F01F0E3364E3EF06F0E5EF06F0FD
:100DC600EDEF06F096EF06F0D8902A362B362C3645
:100DD6002D3633063350D8A4F3EF06F0F5EF06F0C0
:100DE600E7EF06F03250D8B4FBEF06F0FDEF06F061
:100DF60005EF07F02D1E2C1E2B1E2A6C000E2B2233
:100E06002C222D222AC02AF02BC02BF02CC02CF02D
:100E16002DC02DF01200000E086E06BE17EF07F06B
:100E260015EF07F01DEF07F0056C061ED8B0062A71
:100E3600010E086E04BE24EF07F022EF07F02AEF3A
:100E460007F0036C041ED8B0042A010E081A000E1F
:100E56000A6E000E096E05500610D8B435EF07F07D
:100E660037EF07F05FEF07F0010E076E3FEF07F071
:100E7600D89005360636072A06AE44EF07F046EF49
:100E860007F03BEF07F0D89009360A360550035CA9
:100E960006500458D8A052EF07F054EF07F059EF68
:100EA60007F00550035E0650045A0980D8900632B2
:100EB6000532072E46EF07F00850D8B465EF07F065
:100EC60067EF07F06BEF07F0096C0A1ED8B00A2A25
:100ED60009C003F00AC004F01200F7EC07F0E0ECDA
:100EE60005F04050D8B47AEF07F07CEF07F074EFC6
:100EF60007F0000E346EF60E156E280E166E9C0E5A
:100F0600176E400E186E3DC003F03EC004F0000E92
:100F160004BEFF0E056E066E010E06EC05F003C05C
:100F260011F004C012F005C013F006C014F083ECF3
:100F360001F011C02AF012C02BF013C02CF014C01F
:100F46002DF08BEC06F02AC035F02BC036F0040EDF
:100F5600376E000E98EC03F0050E046E010E056E5A
:100F6600030E066E000EBEEC07F0000E406E74EF28
:100F760007F037EF00F0076E5EEC08F00009D8A422
:100F8600C7EF07F0C9EF07F0BFEF07F0899A0750E0
:100F9600400DF3500424800F2BEC08F0E8EF07F027
:100FA6005EEC08F00009D8A4DBEF07F0DDEF07F0F0
:100FB600D3EF07F0898A05C0F6FF06C0F7FF0800E1
:100FC600F5502BEC08F0054A062A05C0F6FF06C0C8
:100FD600F7FF0800F5500009D8A4F4EF07F0F6EF84
:100FE60007F0D3EF07F01200500ED36E9280010E79
:100FF6000F01386F000E396FC30E93168A68830E81
:10100600C216F30EC116FC0EC116C050C70B10094E
:10101600C06EC050F80B0109C06EC08EC19E9E9C6A
:101026009D8CC280F30E4817556956695451F00BD2
:101036000B09546F3F0ECD16300ECD12000ECF6E3B
:10104600000ECE6ECC9ECD80F28CF294F28E120003
:10105600036E03C03FF08B903FAE02D08A8A01D068
:101066008A9A3FAC02D08A8801D08A983FAA02D0D9
:101076008A8601D08A963FA802D08A8401D08A94B3
:101086008B8200F08B923FA602D08A8A01D08A9A80
:101096003FA402D08A8801D08A983FA202D08A86CD
:1010A60001D08A963FA002D08A8401D08A948B828E
:1010B60000F08B9212008B80899A93849386938892
:1010C600938A8B8200F081AA02D03F8E01D03F9E88
:1010D6008B92939493969398939A8B903FAE76EFD8
:1010E60008F078EF08F07BEF08F0010E7CEF08F0CF
:1010F600000E1200036E03C03FF0899A8B903FA842
:1011060002D08A8401D08A943FAA02D08A8601D06E
:101116008A963FAC02D08A8801D08A983FAE02D028
:101126008A8A01D08A9A8B8200F08B921200035031
:101136000502F3CF07F0F4CF08F003500602F35090
:10114600082604500502F350082607C003F008C01D
:1011560004F01200406A3F6A3E6A3D6A3C6A3B6A96
:1011660041904192000EF86E030EF76E000170EF8B
:0211760007F080
:020000040020DA
:08000000FFFFFFFFFFFFFFFF00
:020000040030CA
:0E000000FF29183CFF3D81FF03C003E00340D1
:00000001FF
