:040000005EEF00F0BF
:100008000482F0A80AEF00F00CEF00F016EF00F001
:10001800F0A211EF00F013EF00F016EF00F0F092ED
:10002800010E031AF2AA1BEF00F01DEF00F02EEFED
:1000380000F0F2A422EF00F024EF00F02EEF00F021
:10004800F2940350D8B42BEF00F02DEF00F02EEF10
:1000580000F08A76F2A033EF00F035EF00F044EFBD
:1000680000F0000E81B8010E016E0150D8B43FEFC8
:1000780000F041EF00F043EF00F0010E021AF29099
:100088009EA449EF00F04BEF00F05CEF00F09DA458
:1000980050EF00F052EF00F05CEF00F09E94025039
:1000A800D8B459EF00F05BEF00F05CEF00F08A7A0B
:1000B8000492110096EF00F09B8E8F0ED3168A687B
:1000C800140E936ED59AD596D550F80B0109D56EB6
:1000D800D58C000ED76E000ED66ED58E3F0ECD167F
:1000E800CF0ECD16000ECF6E000ECE6ECD80CC9EFC
:1000F800BD50F00B0B09BD6EFC0E0F014917100E19
:10010800BF6E000EBE6EF2949E909E94F28A9D8001
:100118009D84F28CF28EF088F092F188F286F2904B
:1001280062881200036A026A016A0490049200015C
:100138009EEF00F060EC00F0A0EF00F05EEF00F042
:020000040020DA
:08000000FFFFFFFFFFFFFFFF00
:020000040030CA
:0E000000FF281F3CFFBD81FF03C003E003404B
:00000001FF
