:020000040000FA
:04000000BDEF1FF041
:103F7A000001CAEF1FF0500ED36E000E0F01396F09
:103F8A00160E936E000E8A6E1200C0EC1FF0000E21
:103F9A0081B4010E026E0250D8A4D6EF1FF0D8EFFA
:103FAA001FF0DBEF1FF08A96DCEF1FF08A8681B8DC
:103FBA00E1EF1FF0E3EF1FF0FBEF1FF081A8E8EF3E
:103FCA001FF0EAEF1FF0E3EF1FF08AAAEFEF1FF0EE
:103FDA00F3EF1FF0016A012AF4EF1FF0016A013AB8
:103FEA0001468A500118DF0B01188A6E00F0CCEFE7
:063FFA001FF000EF00F0D3
:020000040020DA
:08000000FFFFFFFFFFFFFFFF00
:020000040030CA
:0E000000FF281F3CFFBD81FF03C003E003404B
:00000001FF
