:04000000ADEF1FF051
:103F5A000001BBEF1FF0FC0ED316D3508F0B2009C4
:103F6A00D36E000E8A6EEF0E936E1200000E026E72
:103F7A00B0EC1FF081B2C4EF1FF0C6EF1FF0D0EF14
:103F8A001FF081A2CBEF1FF0CDEF1FF0C6EF1FF09D
:103F9A000250010A026E0250D8B4D6EF1FF0D8EFD1
:103FAA001FF0BFEF1FF08AA8DDEF1FF0E1EF1FF04F
:103FBA00016A012AE2EF1FF0016A013A8A500118E8
:103FCA00EF0B01188A6E000E046E000E036E320E9D
:103FDA00035C160E0458D8A0F5EF1FF0F7EF1FF098
:103FEA00F9EF1FF0BFEF1FF000F0034A042AECEFCD
:063FFA001FF000EF00F0D3
:020000040020DA
:08000000FFFFFFFFFFFFFFFF00
:020000040030CA
:0E000000FF281F3CFFBD81FF03C003E003404B
:00000001FF
