:04000000AFEF3FF02F
:107F5800500ED36E12000001C2EF3FF0016EACA2CA
:107F6800FED701C0ADFF1200AC84B896190EAF6EF3
:107F7800948C948EAC98AB8EAC8A1200000E046E72
:107F8800000E926E000E896E948094829484010E85
:107F9800946EACEC3FF0B8EC3FF082A00CD0042A11
:107FA800020E036E450E026EAA0EE82EFED7022EB2
:107FB800FCD7032EFAD782A20CD00406020E036E59
:107FC800450E026EAA0EE82EFED7022EFCD7032E0F
:107FD800FAD782A40ED00450B2EC3FF0020E036E22
:107FE800450E026EAA0EE82EFED7022EFCD7032EEF
:087FF800FAD704C089FFD1D7BC
:020000040030CA
:08000000FF281F3CFFBD81FF3A
:00000001FF
